:0400000057EF00F0C6
:1000080003030303030303030303030303030303B8
:1000180003030303030303030303030303030303A8
:100028000303030303030303030303030303030398
:10003800030303030303FC01030303030303030391
:10004800C3020303030303032B0003030303030394
:100058000303030303030303030303030303030368
:100068000303030303030303030303030303030358
:10007800030303032B000303030303032B002B00D9
:100088002B002B002B002B002B002B00030303035A
:1000980003030303030303032B002B002B002B0094
:1000A80003030303C000A7EF05F0000E376E600ED0
:1000B8000E6E000E0F6E67EC04F0040E0E180F1093
:1000C800D8B409D0220E146E7F0E156E35EC04F0EC
:1000D800000E3B6E1200600080F131F0600084F188
:1000E80032F0000E336E600088F134F060008CF15D
:1000F80035F0000E366EEB0E0E6E7F0E0F6E600E34
:10010800106E000E116E98EC04F00E500F10D8A46B
:1001180016D03F01BDA502D0010E01D0000EFF0A86
:10012800286E28462846BD512818FB0B2818BD6F95
:10013800E00E146E7F0E156E35EC04F00ED1FC0E39
:100148000E6E7F0E0F6E310E106E000E116E98EC53
:1001580004F00E500F10D8A424D0340E146E000EE4
:10016800156E74EC02F01450376E3750D8A409D0CD
:10017800A20E146E7F0E156E35EC04F0000E3B6E69
:1001880012006000DCF00EF0000E3FEC05F060009D
:10019800DCF041F0E00E146E7F0E156E35EC04F0C5
:1001A800DCD0F70E0E6E7F0E0F6E310E106E000E45
:1001B800116E98EC04F00E500F10D8A424D0340E11
:1001C800146E000E156E74EC02F01450376E375032
:1001D800D8A409D0A20E146E7F0E156E35EC04F06B
:1001E800000E3B6E12006000DCF00EF0010E3FECDA
:1001F80005F06000DCF03EF0E00E146E7F0E156E28
:1002080035EC04F0AAD0F20E0E6E7F0E0F6E310E92
:10021800106E000E116E98EC04F00E500F10D8A45A
:1002280024D0340E146E000E156E74EC02F01450C7
:10023800376E3750D8A409D0A20E146E7F0E156EF3
:1002480035EC04F0000E3B6E12006000DCF00EF09E
:10025800020E3FEC05F06000DCF03DF0E00E146E9D
:100268007F0E156E35EC04F078D0F50E0E6E7F0E0D
:100278000F6E600E106E000E116E98EC04F00E50AA
:100288000F10D8A418D0290E1A6E000E1B6EE60E99
:100298001C6E7F0E1D6E010EE5EC05F0286E2850D1
:1002A8001E6E1F6AB4EC01F0290E146E000E156E56
:1002B80035EC04F052D0FA0E0E6E7F0E0F6E600E03
:1002C800106E000E116E98EC04F00E500F10D8A4AA
:1002D80018D0290E1A6E000E1B6EE60E1C6E7F0ECD
:1002E8001D6E000EE5EC05F0286E28501E6E1F6A84
:1002F800B4EC01F0290E146E000E156E35EC04F006
:100308002CD0F00E0E6E7F0E0F6E600E106E000E6B
:10031800116E98EC04F00E500F10D8A418D0290EC6
:100328001A6E000E1B6EE60E1C6E7F0E1D6E020E00
:10033800E5EC05F0286E28501E6E1F6AB4EC01F03B
:10034800290E146E000E156E35EC04F006D0650EFD
:10035800146E7D0E156E35EC04F0000E3B6E120027
:100368001E0E216E000E226EA3D0250E2718D8B4BB
:100378000CD060006BF0D9FF60006FF0DAFF60000E
:100388009FF0DFFF1A4A1B2A93D0000E236E6000ED
:1003980073F0F6FF600077F0F7FF1C4A1D2A08008B
:1003A8006F00D4FF27F02750000AD8B490D0640A11
:1003B800D8B403D00D0AD8A47BD0600087F0D9FF49
:1003C80060008BF0DAFF6F0078FF25F06F0074FF94
:1003D80026F0020E2126000E222226AE06D0030E9B
:1003E8002312256C261ED8B0262A010E276E050E6C
:1003F8002718D8B412D02750020D5B0EF324F66EDE
:100408007D0EF420F76E0900F550255C0900F550C3
:100418002658D8A002D0272AEAD760008CF020F00E
:10042800030E2016D8B40AD060006BF0D9FF600024
:100438006FF0DAFF2D0EDF6E1A4A1B2A60009CF05F
:1004480024F032D02450020D5B0EF324F66E7D0E9C
:10045800F420F76E09006F00D4FF10F00A006F0057
:10046800D4FF11F0600094F00EF0600098F00FF0E7
:10047800C5EC04F0600038F015F060003CF016F0B0
:10048800000E186E0A0E176E62EC05F01550300F4C
:10049800276E60006BF0D9FF60006FF0DAFF600034
:1004A8009FF0DFFF1A4A1B2A24062428D8A4CAD79B
:1004B800600073F0F6FF600077F0F7FF1C4A1D2A12
:1004C80008006F00D4FF27F02750D8A44ED760004B
:1004D8006BF0D9FF60006FF0DAFF000EDF6E1200DC
:1004E80002D0144A152A600053F0D9FF600057F073
:1004F800DAFF200EDE18D8B4F4D7600053F0D9FF25
:10050800600057F0DAFF090EDE18D8B4EAD7000EFB
:100518001A6E000E196E000E186E600053F0D9FFA7
:10052800600057F0DAFF2D0EDE18D8A402D0182A82
:100538002AD0600053F0D9FF600057F0DAFF2B0E85
:10054800DE18D8A422D01FD0600064F00EF060003E
:1005580068F00FF0000E116E0A0E106EBEEC05F07A
:10056800600053F0D9FF600057F0DAFFDF50166ED5
:10057800176A0E5016260F501722D00E1624196E21
:10058800FF0E17201A6E144A152A600053F0D9FF7F
:10059800600057F0DAFFDF50D5EC05F0D8B0D4D7BB
:1005A8001850D8B411D0600064F016F0600068F0FC
:1005B80017F0161E171E164A172A600058F014F076
:1005C80060005CF015F01200600064F014F0600048
:1005D80068F015F012003F01D28DD28FD28B000E39
:1005E800D2BF010E386ED29F550ED46FAA0ED46FAB
:1005F800D491000ED76F000ED66F080ED56F550E2A
:10060800D46FAA0ED46FD48138A002D0D28F02D072
:100618003F01D29F390184818397A9EC03F01BEC39
:1006280005F0660E146E7F0E156E35EC04F0CC0ED8
:10063800146E7F0E156E35EC04F0F30E146E7E0EFC
:10064800156E35EC04F0890E146E7F0E156E35ECC0
:1006580004F0B70E146E7F0E156E35EC04F04B0ED9
:10066800146E7F0E156E35EC04F06B0E146E7F0E53
:10067800156E35EC04F03F01CBB105D04050D8A43D
:1006880002D0030E406E4FEC03F03B50D8B4F3D7C2
:1006980059EC00F0F0D745D03F01BD8BBD9DBD9F03
:1006A800BD89BD97BD9112003D503F18D8A41200D6
:1006B8003F01BD9BBD8DBD9FBD89BD97F2EC05F087
:1006C800020E406E120041503F18D8A412003F019C
:1006D800BD9BBD9DBD8FBD99BD87F2EC05F0040E95
:1006E800406E12003E503F18D8A412003F01BD9B37
:1006F800BD8DBD9FBD89BD97F2EC05F0050E406E1E
:10070800120041503F18D8A41200F2EC05F0000E78
:10071800406E12003F01BD81F2EC05F0010E406E03
:1007280012004050000AD8B4B7D7010AD8B4BCD7D1
:10073800030AD8B4C8D7010AD8B4ECD7070AD8B482
:10074800D1D7010AD8A41200DCD7000E406E000EE3
:100758003F6E000E3F01C56F000E3A01706F000E2C
:100768003F01BD6F000EE5EC05F0416E4150D8B475
:1007780003D04128D8A402D0020E416E010EE5EC48
:1007880005F03E6E3E50D8B403D03E28D8A402D01F
:10079800080E3E6E020EE5EC05F03D6E3D50D8B4F5
:1007A80003D03D28D8A402D0020E3D6E3F01C3817C
:1007B8003A015091850E3A6EEE0E396E000E3F01E9
:1007C800B36F000EB46F060EB56F3A50B16F60008C
:1007D800E7F0B0FF3901A49194813F01B283CF0EB5
:1007E800B217B295B28112003901A39D3C50010D98
:1007F800800EF324D96E000EF420DA6E6F00A3F792
:10080800DFFF3C50010D800EF324D96E000EF4205A
:10081800DA6E0D0EDE18D8A41DD0600E016E000E23
:10082800026E800E036E000E046E6000F0F005F09C
:10083800066AF0EC04F03C50010D600EF324D96E0A
:10084800000EF420DA6E000EDF6E010E3B6E000E15
:100858003C6E11003C2A3F0E3C641100000E3C6EB9
:100868001100000E196E000E186E1ED018501424B8
:10087800166E19501520176E60005BF0F6FF6000C9
:100888005FF0F7FFF86A070EF76403D00800F55029
:1008980007D06F00DBFFE9FF6F00DFFFEAFFEF50D3
:1008A800FDEC05F0184A192A600050F00EF06000BF
:1008B80054F00FF067EC04F00E50185C0F50195804
:1008C800D8B01200D3D7600038F012F060003CF0C6
:1008D80013F002D0124A132A60004BF0F6FF6000B2
:1008E8004FF0F7FFF86A070EF76403D00800F550D9
:1008F80007D06F00DBFFE9FF6F00DFFFEAFFEF5073
:100908000009D8A4E7D7600038F010F060003CF088
:1009180011F0101E111E104A112A125010240E6ECA
:10092800135011200F6E120004D00E4A0F2A104ADD
:10093800112A60003BF0F6FF60003FF0F7FF080067
:100948006F00D4FF12F0600043F0D9FF600047F059
:10095800DAFFDF5000081224136E1350D8A40BD00E
:1009680060003BF0F6FF60003FF0F7FF0800F5502D
:100978000009D8A4DAD713500E6E0F6A0EBE0F0600
:100988001200000E136E000E126E10501110D8B423
:100998001CD0010E146E04D0D89010361136142ACB
:1009A80011AEFAD7D8901236133610500E5C11508B
:1009B8000F58D8A005D010500E5E11500F5A128053
:1009C800D89011321032142EEDD7600048F00EF096
:1009D80060004CF00FF0120060000CF009F06000AD
:1009E80010F00AF0600004F007F0600008F008F06A
:1009F80015D0600027F0D9FF60002BF0DAFFDF5038
:100A08000B6E094A0A2A60001FF0D9FF600023F024
:100A1800DAFF60002FF0DFFF074A082A0506D8A092
:100A280006060528E6E10628D8B41200E2D73D01FB
:100A3800F39F3A015099509B3F01C399130E3A0115
:100A48000C6F3F01C38B3A01E581E593E585E587A6
:100A5800E5993D01F28BF289F28FF29DF291F293C2
:100A6800F295F297100EF56F000EF66F3901938725
:100A78003D01F38F12000F6E3F01000ED2BF010E31
:100A8800106E60003FF0E0F960003BF0E3F93F0EC4
:100A98003901E517E5853F01D29F550E3901E66F0B
:100AA800AA0EE66FE583E5B3FED7E59510B003D04F
:100AB8003F01D29F02D03F01D28F12001750181069
:100AC800D8B418D0010E196E04D0D890173618363D
:100AD800192A18AEFAD71750155C18501658D8A00E
:100AE80004D01750155E1850165AD890183217327D
:100AF800192EF1D7600054F015F0600058F016F088
:020B08001200D9
:100B0C003901A4913F01B2A508D0B2913A50B16F0E
:100B1C006000E7F0B0FFB28105D03A50B16F6000D1
:100B2C00E7F0B0FFBDA302D0010E01D0000EFF0A0A
:100B3C000D6E0D46BD510D18FD0B0D18BD6F3F2AE6
:100B4C00110000EE60F0400EEE6AE806FDE100EEEA
:100B5C0039F0080EEE6AE806FDE1080ED56E000EBF
:100B6C00D66E000ED76E000EF86E0001EFEF02F09D
:100B7C000E5010026F00CCFF12F06F00D0FF13F07C
:100B8C000E501102F35013260F501002F35013267F
:100B9C00600048F00EF060004CF00FF01200106E88
:100BAC00000E0F6E3A0E106005D02F0E106402D09E
:100BBC00010E0F6E60003CF00EF00E3012000E6E47
:100BCC0060003BF0E0F93F0E3901E517E58100F0DC
:100BDC0000F03901E35112003F01B2913A50B16F6C
:100BEC006000E7F0B0FFB281000E3F6E12000E6E97
:0E0BFC003901A3A9FDD760003BF0EAFD12000D
:020C0C001100D5
:107D5A000001000A006400E8031027434F4D4D411B
:107D6A004E44533A0D0A4C454432202020202D20FF
:107D7A00546F67676C65204C4544320D0A54547839
:107D8A0078202020202D205472616E736974696FE7
:107D9A006E2074696D652C207878203D20612076EC
:107DAA00616C756520303120746F20393920736514
:107DBA00636F6E64732E0D0A525478782020202047
:107DCA002D20526564206C696768742074696D653A
:107DDA002C207878203D20612076616C75652030F2
:107DEA003120746F203939207365636F6E64732E86
:107DFA000D0A42507878202020202D204275747474
:107E0A006F6E20707265737320746F2079656C6C65
:107E1A006F772074696D652C207878203D20612069
:107E2A0076616C756520303120746F203939207382
:107E3A0065636F6E64732E0D0A52455254202020DA
:107E4A00202D20526561642063757272656E7420FC
:107E5A00726564206C696768742074696D65206650
:107E6A00726F6D20454550524F4D2E0D0A524554A2
:107E7A0054202020202D205265616420637572727F
:107E8A00656E74207472616E736974696F6E2074A2
:107E9A00696D652066726F6D20454550524F4D2EB3
:107EAA000D0A52454250202020202D20526561643F
:107EBA002063757272656E7420627574746F6E20B9
:107ECA00746F2079656C6C6F77207472616E736958
:107EDA0074696F6E2074696D652066726F6D2045D6
:107EEA004550524F4D2E0D0A00496E6CE46D6E6975
:107EFA006E6773757070676966742069206B757236
:107F0A0073656E2070726F636573736F726B756ED3
:107F1A00736B61702E0D0A004120636F6D6D616E87
:107F2A00642068617320746F20626520342063685E
:107F3A006172616374657273206C6F6E672E0D0ACD
:107F4A000054726166666963206C6967687473209D
:107F5A00696E697469616C697A65642E0D0A0D0A25
:107F6A000054797065202268656C702220666F72F1
:107F7A0020636F6D6D616E64732E0D0A0D0A0041E8
:107F8A0076204A6F616368696D20576573746C75F2
:107F9A006E642E0D0A0D0A004E6F74206120766100
:107FAA006C6964206E756D6265720D0A00554152E6
:107FBA00543120696E697469616C697A65642E0D41
:107FCA000A0054726166696B6B6F72736E696E67D1
:107FDA002E0D0A0D0A004F4B2E0D0A0025640D0ABC
:107FEA00004C45443200524542500052455254001A
:067FFA0052455454000042
:020000040020DA
:10000000FF0FFF0FFF0FFF0FFF0FFF0FFF0FFF0F80
:020000040030CA
:0A000000FAFFFFFF9FFFFFDFFFFF85
:020000040031C9
:0800000004100B0000000000D9
:00000001FF
